:020000041000EA
:1000000000B5324B212058609868022188439860DF
:10001000D860186158612E4B002199600221596106
:100020000121F02299502B49196001219960352056
:1000300000F044F80222904214D00621196600F024
:1000400034F8196E01211966002018661A6600F04E
:100050002CF8196E196E196E052000F02FF8012189
:100060000842F9D1002199601B49196000215960AB
:100070001A491B48016001219960EB211966A021F2
:10008000196600F012F800219960164914480160C1
:100090000121996001BC002800D000471248134993
:1000A000086003C880F30888084703B5996A0420EC
:1000B0000142FBD001200142F8D103BD02B5186610
:1000C0001866FFF7F2FF186E186E02BD00000240BE
:1000D000000000180000070000035F00212200005C
:1000E000F4000018222000A00001001008ED00E03C
:1000F00000000000000000000000000074B24E7A12
:1001000000200420F7010010C3010010C5010010F9
:10011000C1010010C1010010C1010010C101001097
:10012000C1010010C1010010C1010010C701001081
:10013000C1010010C1010010C9010010CB01001065
:10014000CD010010CD010010CD010010CD01001037
:10015000CD010010CD010010CD010010CD01001027
:10016000CD010010CD010010CD010010CD01001017
:10017000CD010010CD010010CD010010CD01001007
:10018000CD010010CD010010CD010010CD010010F7
:10019000CD010010CD010010CD010010CD010010E7
:1001A000CD010010CD010010CD010010CD010010D7
:1001B000CD010010CD010010CD010010CD010010C7
:1001C00000BE00BE00BE00BE00BE00BEEFF3058054
:1001D000103800BEF2EB8871E01606100417061006
:1001E0003402001090A31AE700201F49086006C8D7
:1001F00081F3088810471D48006800282FD10DA4FE
:100200000ECC002902D000F012F8F9E71849194A7B
:10021000002000E001C19142FCD1174988471749ED
:1002200088471749884700BEFDE701C901C29A42C5
:10023000FBD3704704170610C00000201C230020C9
:100240006039061000000420000004206039061008
:10025000001004200010042000000000704709482E
:1002600002F0A0FF0047000008ED00E0000000D011
:100270002023002030460120651E00104D04001090
:10028000271E00105756000006005250ABB36053B3
:10029000E4DD041006005250861C0302F4DD041055
:1002A000060052505422A29D14DE04100500525044
:1002B000DE65F46860390610F8B5C046064807499F
:1002C000091A8B10C90FC91810B5491003D0044B77
:1002D000002B00D0984710BD1C2300201C230020B9
:1002E00000000000054B10B5002B03D00449054861
:1002F00000E000BFFFF7E2FF10BDC04600000000B5
:100300002C3F002020D0041030B587B002AB009302
:10031000002301936A46137214E01949194826F024
:1003200051FF0099019A26F0DBFD26F0B3FD002372
:100330000193009A1370144B1868002300220021C7
:1003400005F086FA002004F039FA0400431C12D0AC
:100350000B490C4826F036FFE5B2290026F018FFBD
:1003600026F098FD0A2CD8D00D2CD6D0290068464E
:1003700027F076FBDFE70A2006F05CF9E2E7C046EB
:1003800020D00410A8370020E845012070B50400F3
:100390000D00012805D0002C02D1074B9D4207D04B
:1003A00070BD054B9942F6D1044807F021FAF2E7F7
:1003B000024807F02DFAF3E7FFFF0000783A00202B
:1003C000014B986A7047C04600400540F0B5D646DC
:1003D0004F464646C0B580460D00914600261BE0BC
:1003E00043461B68012422009A40D0273F067A61C9
:1003F0006801401B80004019C000FA21890002F00A
:1004000025FF824606F016F943461B689C40BC61F6
:10041000504606F00FF901364E45E1DBE0BCBA4626
:10042000B146A846F0BD000010B504000121064BFE
:100430001868494205F016FC0128F7D10122642111
:100440002000FFF7C3FFF1E7E845012030B583B096
:1004500004F0AEF9184806F0DBFE00281ED1032296
:100460000021012005F0ACF9144B186080246400D1
:10047000134914480025019501230093002322000D
:1004800005F0DAFE104B1149114801950222009245
:10049000220005F0D1FE05F003FFFEE70A4B16200F
:1004A000186000F037F8D0231B068022D2035A626E
:1004B000014806F0C9FED2E778270020E845012070
:1004C0002CD00410090300107C3A00203CD004100A
:1004D0002904001010B502490120FFF757FF10BD95
:1004E000FFFF000010B58300084A944663441A6871
:1004F00040246240803414408022520113431C6027
:10050000C000034B9C466044416010BD04C00140E4
:100510000040014010B501238340D02212069362AF
:1005200093610521FFF7DEFF10BD0000034B1B6840
:1005300002201840431E9841C0B2704700C00640D8
:10054000EFF3108072B6034B1B68002BFBD0BFF398
:100550005F8F70472C0100D0BFF35F8F024B0022EA
:100560001A6080F3108870472C0100D0F8B506009F
:100570000C001500FFF7E4FFE308F718F15C072211
:100580002240012393400B4205D1DBB20B433B7069
:10059000FFF7E2FFF8BD2100280001F0DFFC0000BA
:1005A000002307E0054A9A189200BFF35F8F0021ED
:1005B000116001331F2BF5D97047C046400000344D
:1005C000054A1078431CDBB21370172B02D91300B5
:1005D00010221A707047C046A4110020074B9B6878
:1005E000103080001950BFF35F8FBFF35F8F044B53
:1005F0000021196082F310887047C04600ED00E0CA
:10060000240100D010B50388DA0A1C2A05D15B0545
:100610005B1502335B00C01810BD034B034A04484E
:10062000B12101F003FCC04648D00410E8D1041009
:1006300060D0041010B5091A0B1F0A4A88180A4A1C
:10064000904208D8C90706D45B105B055B0D0748CC
:10065000184380B210BD064B064A0748A32101F09B
:10066000E5FBC046FC070000FE0F000000E0FFFFB6
:10067000A4D00410DCD1041060D0041010B5091A05
:1006800004394A08090B08D14905490D064B0B43AB
:100690000380064B1343438010BD054B054A0648B3
:1006A000AB2101F0C3FBC04600F0FFFF00F8FFFFE5
:1006B000D4D00410B0D1041060D0041001238340C2
:1006C000034A10681840431E9841C0B27047C046A4
:1006D00000E100E0002904D0034B1860034B1860D0
:1006E0007047034B1860FBE780E200E000E100E0A8
:1006F00080E100E010B5012383401800FFF7EAFF16
:1007000010BD0000024B9B6810308000C05870473D
:1007100000ED00E070B504000D00EFF3108672B636
:100720000C4B1B68002BFBD0BFF35F8F2000FFF743
:10073000E9FF094B984201D0A84205D132002900B7
:100740002000FFF74BFF70BD044B054A054886218A
:1007500001F06CFB240100D0CD010010E4D00410A6
:10076000F8D1041060D00410F0B5CE46474680B5ED
:1007700083B006000D00EFF3108872B64F4B1B6874
:10078000002BFBD0BFF35F8F4D4B9A6834001034C1
:10079000A300D7584B4B9F4207D0AF4200D18BE00C
:1007A0000197494BFB1A2F2B09D9424639003000DB
:1007B000FFF714FF03B0C0BCB946B046F0BD30002F
:1007C000FFF77CFF814600213000FFF793FFBFF366
:1007D0005F8FEFF30581002901D08C4211D10123F5
:1007E000019C9C430020A368AB4212D00622A25673
:1007F000002A0DDB53009B189B00334A2000D418BD
:10080000F1E7324B324A36213248FF3101F00EFB1C
:100810002000AB4249D106256557002D2BDB2A4B22
:100820006A00521992009B189A68A260DA79E27104
:100830009B795BB2A371002B0FDA2748A080224B73
:100840006A00521992009B18244A11789971157008
:1008500049463000FFF74EFFA7E7680040198000C7
:10086000194BC0180430FFF7CDFE0100231D1800FE
:10087000FFF7E0FEE2E7002912D100280ED0FF23A7
:100880008371174B838015490B78A3710E4A154B62
:10089000A41A644163431B0D0B70D9E7094FF2E7BB
:1008A0001149201DFFF7EAFED2E7104B084A6A21E2
:1008B0000848FF3101F0BAFA024F76E7240100D070
:1008C00000ED00E0CD010010A81100201CD10410A3
:1008D000C8D1041060D0041001BD00002E460120D4
:1008E00001BDFFFFAAAA0000E211002050D10410B0
:1008F00070B5012202432E4BD31A2F2B28D8EFF3C9
:100900000583002B2BD0EFF3108C72B629490968B0
:100910000029FBD0BFF35F8F254C274905002D1B15
:100920006D416943090D4CB2244989689B00C9583F
:1009300091421BD00021032932D81D4B4A00521886
:1009400092009B189B795BB2A3421FD00131F2E762
:100950001B4B1C4AC7211C48490001F067FA1B4B7E
:10096000184A92211848FF3101F060FA134A926840
:100970001749D150174B1A7882711C70BFF35F8FE3
:100980000C4B00221A608CF3108870BD084B4A0093
:100990005518AD005D19FF26AE710F4AAA80E9E730
:1009A0000E4B084AD1210848490001F03FFAC046E1
:1009B000A8110020240100D0AAAA000000ED00E048
:1009C00058D1041094D1041060D0041080D10410C8
:1009D000CD0100102E46012001BDFFFF8CD1041077
:1009E0000022044B02E0044902C30132072AFAD96B
:1009F0007047C04600E400E080808080024B9C4647
:100A000061448900016070474000003410B5040063
:100A1000FFF7D6FD01002000FFF7F0FF01235B4246
:100A20006360BFF35F8F10BD10B50400FFF7C8FD12
:100A300001002000FFF7E2FF01235B426360002317
:100A40002372BFF35F8F10BD084B5B6A994209D8D0
:100A5000064A926A824207D2994201D0012002E0FE
:100A6000002000E0002070470120FCE70040054026
:100A700010B500290AD003681B7B8B4206D380681F
:100A8000054B9C4661440901401810BD034B044AC4
:100A900004483C2101F0CAF9FFFFFF0FCCD204103B
:100AA00014D60410F0D20410F8B504001700FFF7B4
:100AB000DFFF0668456839002000FFF7D9FF0268AC
:100AC00043680120AB4201D802D00020C0B2F8BD7B
:100AD000B242FBD8F9E7000010B5002B02DB026040
:100AE000436010BD024B034A03483F2101F09EF9C9
:100AF00030D30410E0D504104CD3041010B582B0EC
:100B000004000498059912184B41002B09DB684634
:100B1000FFF7E2FF009A019B22606360200002B0B1
:100B200010BD01225242014BF1E7C046FFFFFF7F9B
:100B300010B5002908D0037B8B4205D300684B0019
:100B40005B18033BC01810BD024B034A03486821E1
:100B500001F06CF998D30410BCD50410B4D3041080
:100B600010B5437B8B4201D1012010BDFFF7E0FFA0
:100B70008378002B01D10020F7E70120F5E770B55D
:100B80000400857B002D01D1280070BD2900FFF7EE
:100B9000CFFF4378A373002B00D1E373002383704E
:100BA00043700370F0E70000F8B506000C00150074
:100BB000FFF7BEFF0700002C0DD0002D11D0AC4276
:100BC00015D029003000FFF7B3FF84703B78002B6D
:100BD00013D13D70F8BD0A4B0A4A0B486F2101F052
:100BE00025F90A4B074A0848702101F01FF9084B04
:100BF000044A0548712101F019F943703D70E9E795
:100C000004D4041098D50410B4D3041010D40410E4
:100C10001CD4041070B506000D001400002914D077
:100C2000002A14D0436880689847002806D0220024
:100C300029003000FFF7B8FF280007E02A00210054
:100C40003000FFF7B1FF200000E0100070BD080089
:100C5000FCE7000070B504000D1E0CD0FFF768FF24
:100C60000023837043700370617B2A002000FFF72C
:100C7000D1FF607370BD034B034A0448A52101F006
:100C8000D5F8C04634D40410ACD50410B4D3041045
:100C900070B504000D1E0FD0FFF762FF00280BD1C6
:100CA000E17B00290ED1A37B002B03D1E37B002B3A
:100CB0000DD1A573E57370BD084B094A0948F621AB
:100CC00001F0B4F82000FFF733FF4570EBE7064B67
:100CD000034A0448FB2101F0A9F8C04638D40410A7
:100CE00088D50410B4D304105CD4041010B50029C6
:100CF00007D003681B7B8B4203D3C06801394018BF
:100D000010BD034B034A0448412101F08FF8C0464F
:100D1000CCD2041074D50410F0D2041070B50500C4
:100D20000C00080000F042FC0949200000F082FBA2
:100D3000FFF746FC074B9C466044800068602C75BA
:100D4000D0231B061B786B75034BA400E55070BDC8
:100D5000150E001040000034443F002010B582B052
:100D6000040000F029FB02000B006846FFF7B4FE08
:100D7000009A019B22606360200002B010BD000059
:100D8000F0B583B0070001921D000AAB1C780BABD5
:100D90001E78002C0BD000682100FFF7E1FE002830
:100DA00009D0194B194A1A48672101F03FF8006829
:100DB000FFF7E5FE0400002C02D1200003B0F0BDD7
:100DC00021003800FFF754FE019B03604560089B3B
:100DD0008360099BC36038682100FFF73BFFA04296
:100DE000EBD1387D019A2B0000F06CFB051E01D081
:100DF000002E04D00C9B002BDFD01D70DDE738687F
:100E0000210000F019FDF5E770D40410C8D50410D6
:100E1000F0D20410F0B5DE4657464E464546E0B5E2
:100E20008FB00B900021794B8200D458894683E023
:100E300029002000FFF71CFE804602684368921BD1
:100E4000BB41002B09DD43461A685B680B9800F034
:100E500039FB0023984600268AE0002B01D1002AA6
:100E6000F1D10021584600F0DDFC0700A84215D161
:100E700043461A685B680892099343469E68DB689C
:100E80009846002E10D029002000FFF72FFF03788E
:100E900099461B021F432761002069E05C4B5D4AB5
:100EA0005D488E2100F0C2FF5C4B5A4A5A4892219D
:100EB00000F0BCFF2369002B00D177E0BB4219D1C1
:100EC00006980799002342428B4100920193089AA9
:100ED000099B0CA8FFF712FE0C9A0D9B00210491B0
:100EE0000131039102954146019100962000FFF7E0
:100EF00047FF16E04A4B474A4748A12100F096FFBA
:100F0000069A079B002B01D1002A52D120682900A4
:100F1000FFF7BEFE29002000FFF7E8FE037801334B
:100F20000370002323616268BFF35F8F13608AF34D
:100F300010880120002861D00CA8FFF70FFF0C9E3D
:100F40000D9F00220023089209936268EFF3108A34
:100F500072B61368002BFCD0BFF35F8F23689B46EB
:100F60005D7B002D00D063E700239846002600201B
:100F70006368BFF35F8F00221A608AF31088002E27
:100F8000D8D04B461F022F4341463800B047069049
:100F900007916268EFF3108A72B61368002BFCD0D9
:100FA000BFF35F8F079B002B00DA83E7079B002BC3
:100FB000A6DD2369002BA9D0BB4219D10CA8FFF7ED
:100FC000CDFE0C9A0D9B06980799009001910CA8F4
:100FD000FFF794FD0C9A0D9B0021049101310391C0
:100FE00002954146019100962000FFF7C9FE98E75F
:100FF0000B4B084A0848A42100F018FF0FB0F0BCC2
:10100000BB46B246A946A046F0BDC046443F0020BC
:1010100098D40410F8D50410F0D20410B0D4041001
:10102000BCD4041010B5084B1A68EFF3108172B6E7
:101030001368002BFCD0BFF35F8F034804F01AF84D
:101040000020002110BDC046D844002010B50C4B34
:101050005B68002B04D00B480A21FFF7CFFC10BDC2
:10106000074C094A20682300102100F046FB0320AA
:1010700000F096F903212000FFF750FEEBE7C04691
:10108000F0110020D8440020A90A001010B5064B2A
:101090005B68002B01D0044810BD044B044A05488E
:1010A0005E2100F0C3FEC046F0110020F8D4041009
:1010B0005CD50410F0D20410F0B5DE4657464E461B
:1010C0004546E0B58DB0060090461F00169B9A4637
:1010D000179B994618AB1B780793272302AA9446BF
:1010E000634400221A7021E001003000FFF7FEFD8A
:1010F00000783CE00698002B5CD0079B002B59D071
:101100004946D04704000D0003000B4359D0002985
:1011100040DB08A8FFF722FE089A099B009401957E
:1011200008A8FFF7EBFC089B9846099F7268EFF34D
:10113000108B72B6136859424B41D9B20691002BFD
:10114000F8D1BFF35F8F273302AA94466344049318
:101150000023039302934B46019353460093424668
:101160003B003000FFF70CFE0400051EBCD1736885
:10117000BFF35F8F002119608BF31088002D17D00B
:10118000272302AA944663441B78002BB2D10002A5
:101190002043B0E700236242AB41009201934246F4
:1011A0003B0008A8FFF7AAFC089B9846099FBDE7EB
:1011B000012040420DB0F0BCBB46B246A946A04655
:1011C000F0BD0698F6E7F0B5C64600B584B0050058
:1011D000884616001F000AAB1C78FFF757FF0294E1
:1011E000019700962A004346FFF766FF04B080BCD3
:1011F000B846F0BDF0B5C64600B505000C1E42D09D
:101200004268EFF3108772B61368002BFCD0BFF36F
:101210005F8FE6B22B68984631001800FFF7A0FCFC
:1012200000282AD02B69A34213D0240AE4B231004B
:101230002800FFF75BFD0378A34211D000206B6804
:10124000BFF35F8F00221A6087F3108880BCB84616
:10125000F0BD0E4B0E4A2C210E48FF3100F0E6FD8A
:101260003100404600F0E8FA0028E8D10A4B084A6D
:1012700099210848490000F0D9FD2B69A342DED12D
:1012800000232B61DBE70020E0E7C0461CD50410FB
:1012900044D50410F0D2041040D5041010B5040059
:1012A000FFF7F4FE2100FFF7A5FF10BD30B583B0B6
:1012B00005000C00EFF30583002B0FD10B4A002330
:1012C0000093FFF780FF00280BDD20BFFFF7E6FF4C
:1012D00028002100FFF7B8FB03B030BDFFF7B4FBD7
:1012E000FAE728002100FFF7AFFBF5E72510001013
:1012F00010B5002B02DB0260436010BD024B034AB5
:1013000003483F2100F092FD30D30410D4D60410DE
:101310004CD3041070B5EFF305801038EFF3108C48
:1013200072B6194B1B68002BFBD0BFF35F8F0122F5
:101330001300834015494B6315490B601549097823
:101340000C00C440224213D0104A546A124A85004D
:10135000AA58944205D3114AAA580E4C99432170B9
:1013600007E00A4A031D9B0099589950002200E0AB
:101370000022BFF35F8F044B002119608CF31088AB
:10138000002A00D0904770BD280100D000400540E1
:101390003C7005402F460120DC440020B83D002071
:1013A00010B50100024A034B1800FFF7DFF810BD2B
:1013B00028D604102D460120044B5B6A034A906A2C
:1013C0001900536A9942F9D17047C0460040054060
:1013D000084B5B6A01E0074B5B6A8B42FBD301E081
:1013E000044B5B6A8B4203D1024B9B6A8342F7D367
:1013F0007047C04600400540F0B583B004000D00C2
:10140000FFF7DAFF06000F0022002B0092197B4144
:10141000994202D804D1904202D901225242D317F4
:101420006846FFF765FF00980199FFF7D1FF03B009
:10143000F0BD000070B504000E00EFF3108572B629
:101440001B4B1B68002BFBD0BFF35F8F002E1CD003
:101450002000FFF757F9174B83420BD019002000EB
:10146000FFF758F901212000FFF744F90123A340B9
:10147000114A1360114BA400E650BFF35F8F0C4B71
:1014800000221A6085F3108870BD0C4BA200002169
:10149000D1500122A2400A490B7893430B700549B1
:1014A0002000FFF761F900212000FFF723F9E4E7AE
:1014B000280100D01513001038600540B83D002009
:1014C0002F460120F0B5DE4600B584B004001500BB
:1014D00001921E000293FFF76FFF03958E4202D820
:1014E0004ED185424CD9EFF3108B72B6274B1B6857
:1014F000002BFBD0BFF35F8F254A17780125A5404D
:10150000EBB23B431370234B5D63221D92000199A4
:10151000D150214AA100029888501B6A2B4212D157
:101520001C4B1B6C2B4208D00020BFF35F8F174B66
:1015300000221A608BF3108823E0184B184A1948D0
:10154000C52100F073FCFFF737FF8E4214D802D19B
:10155000039B834210D80E4B1B78BB420ED00D4B21
:101560001D625D631F222240012393400E4A1360D7
:10157000074B1F700120D8E70020D6E70120D4E7F1
:10158000012004B080BCBB46F0BDC046280100D09D
:101590002F46012000400540DC4400204CD60410BA
:1015A000B8D6041070D6041080E200E0EFF3108C7F
:1015B00072B60B4B1B68002BFBD0BFF35F8F012370
:1015C0008340084A136208490A789A430A70BFF3B5
:1015D0005F8F034B00221A608CF310887047C0465F
:1015E000280100D0004005402F46012010B50029F9
:1015F00008D0037B8B4205D300684B005B18033B8C
:10160000C01810BD024B034A0348682100F00EFCCD
:1016100098D30410E0D70410B4D30410F8B5060032
:101620000C001500FFF7E2FF0700002C0DD0002D85
:1016300011D0AC4215D029003000FFF7D7FF8470DD
:101640003B78002B13D13D70F8BD0A4B0A4A0B487A
:101650006F2100F0EBFB0A4B074A0848702100F0AD
:10166000E5FB084B044A0548712100F0DFFB43709D
:101670003D70E9E704D40410CCD70410B4D30410AF
:1016800010D404101CD4041070B506000D00140012
:10169000002914D0002A14D0436880689847002895
:1016A00006D0220029003000FFF7B8FF280007E02D
:1016B0002A0021003000FFF7B1FF200000E01000F9
:1016C00070BD0800FCE770B50500002343730133CB
:1016D0008373037BC373012406E021002800FFF716
:1016E00085FF0134E4B24470297BA142F5D828007B
:1016F000FFF77CFF0023437070BD10B5017342609B
:101700008360FFF7E0FF10BDF0B5C64600B50500E9
:101710000C1E03D1200080BCB846F0BDFFF766FF69
:101720004678002EF6D031002800FFF75FFF47789B
:1017300000239846437021002800FFF757FF4346D7
:101740004370320021002800FFF79EFF040039009B
:101750002800FFF7D9FF020021002800FFF794FFBF
:101760000400D7E7F0B5C64600B504000D00170029
:10177000002927D0FFF73AFF4378002B28D1837840
:10178000002B2BD101782000FFF7BEFF060080461A
:10179000002F0AD0E17B002926D1A37B002B03D1A7
:1017A000E37B002B25D1A573E5734346002B26D19F
:1017B00029002000FFF71AFF00234370300080BC8F
:1017C000B846F0BD114B124A1248382100F02EFBEA
:1017D000114B0F4A0F483A2100F028FB0F4B0C4ADF
:1017E0000C483B2100F022FB2000FFF7FFFE457074
:1017F000D3E70B4B064A0748422100F017FB3100A4
:101800002000FFF7F3FE00238370D1E7ECD604102D
:10181000B8D70410F4D6041034D704105CD70410E1
:101820005CD4041070B504000A00457B2900FFF762
:1018300099FF6073280070BD70B506000C1E40D083
:10184000437B8B4207D0FFF7D1FE0500817800294A
:1018500006D1002036E00121FFF7E4FF012031E04E
:101860003000FFF7C3FE0178A1420DD03000FFF732
:10187000BDFE4178A1420AD00029F7D1124B134A8C
:1018800013486B3100F0D2FA6B78037001E06B788B
:1018900043700023AB706B70012221003000FFF712
:1018A00061FF0200717B814205D03000FFF7ECFE42
:1018B0007073012006E0074B044A0548712100F0CF
:1018C000B5FA002070BDC0468CD10410A0D704101A
:1018D000F4D6041080D7041070B5046BE30701D46C
:1018E000200070BD02003032C0239B0113430A4A1E
:1018F0001A60456A836AAD01ED18AD02062000F05A
:10190000BDF9064901F0A2FC0100280001F09EFC8F
:101910000021FFF771FDE3E7010300004E0E000018
:1019200070B504000E001500FFF7D6FF22002C3220
:10193000E36A5E40354080235B0113431D602063F2
:1019400070BD000070B505000C00062000F096F98F
:10195000C000210001F07AFCC60908D00E4B9E425F
:1019600016D87F230340013334005E0800E00124D1
:101970006C62AE62002200212800FFF7D1FF062032
:1019800000F07CF98000A101891901F05FFC70BDB5
:101990000026024CECE7C046FEFF0000FFFF0000FF
:1019A00010B505394901013AD2001143002B09D085
:1019B00002220A43012B07D0002111436E22FFF7B8
:1019C000AFFF10BD0022F4E70421F6E7002909D09B
:1019D0000A22064B9C46604443425841044B400057
:1019E000C252704780225200F3E7C0460080FCBF1D
:1019F000EC44002070B505000C00062000F03EF914
:101A0000061E27D0164B9D4226D08022D203154BAE
:101A10001A60154B1A60154B9B6811009943FAD157
:101A200000212800FFF7D2FF21002800FFF78AFFDE
:101A300006000023012208212800FFF7B1FF2A0039
:101A40002C3280239B01134310221A60084B2B6316
:101A50000323AB64300070BD80221204D7E7C04678
:101A60000080034000E0004000F0004000C0004063
:101A700001030000F8B5DE4657464E464546E0B540
:101A800006000F0015000A9A934250D31A0E924690
:101A90001B0298460A9A00234046514601F014FC66
:101AA00081467400A419A4002F4B9C4664446368CB
:101AB000834200D26060331FDBB29B46012B3CD9CE
:101AC000C0239B012343802212011A60274BB200DE
:101AD000D158002907D0586901F0B8FB0130430004
:101AE0001B18033BFDD26D0123685D40E0222A40B4
:101AF00080235B0123431A605A46012A28D9802398
:101B00009B012343802212011A604B4663604A46C0
:101B100000234046514601F0D7FB144BB6009851C4
:101B20000120F0BCBB46B246A946A046F8BD104B0A
:101B3000104A1148332100F079F9012FC0D1C02398
:101B40009B01234303221A60A368DB07FCD5CAE785
:101B50002168794003220A401A60A3680125BD402C
:101B60001D42FAD0CBE7C04600800040D03D0020A7
:101B7000ECD704104CD8041000D8041030B583B052
:101B80000C2000F011F9FEF7D1FC00280DD0002345
:101B900004E02E4A99002E4888500133092BF8D9C9
:101BA0002A4B2C4A5A6203B030BD2B4B00229A6755
:101BB00000F002F9294B01221A60274B5B6C012BC4
:101BC000FBD1274B03221A60234B9B6B012BFBD1CC
:101BD000013300930433234A0121234800F054F8D1
:101BE00005230093214A0121214800F04DF8214BA3
:101BF0000093002202210420FFF73CFF1E4D0095B8
:101C00002B00002201210520FFF734FF104C009427
:101C10002300002200210720FFF72CFF009423005F
:101C2000002200210820FFF725FF0A4B0093230024
:101C3000002200210920FFF71DFF00952B00002244
:101C400000210620FFF716FFADE7C046D03D00207B
:101C5000006CDC021BB70000008000403CB000407C
:101C600030B00040002F685900800240008C864749
:101C700000C00240001BB70040597307014B8000B1
:101C8000C0587047D03D0020F0B5C64600B50400EE
:101C90000E0017001D00374801F0D8FA8046364B79
:101CA000FA18364B9A4239D80100380001F0CEFAC2
:101CB0000200103A98235B009A4235D86B1E062B1F
:101CC00038D8069B013B062B34D83F09474537D30C
:101CD0002D04069B1B031D432368002B36DB284B7A
:101CE0009C4244D080235B01264A1360264A13603D
:101CF000264A926819009143FAD12660A060221DFD
:101D0000C0239B01134321221A602268002AFCDAB7
:101D1000E56008221A6080BCB846F0BD1C4B1D4A25
:101D20001D48112100F082F81C4B1A4A1A4819214B
:101D300000F07CF81A4B174A17481C2100F076F87F
:101D4000184B144A1448232100F070F822683F23EE
:101D50001340B342C3D1A3681B051B0D8342BED100
:101D6000E368EE22D2021340AB42B8D1D3E780231E
:101D70009B01B9E7001BB70080E84BD380F8A9327C
:101D800000C0024000E0004000F0004000C0004001
:101D90005CD8041084D90410BCD8041000D90410F5
:101DA0001CD9041068D9041080239B000343014A06
:101DB000D362704700800540064BAA2212011A60C8
:101DC0002F22DA60044B054A1A60024B5B68002B35
:101DD000FBDA7047004002400060024000B0FA00A9
:101DE00000BEFDE703000A4A1268002A08D0084A2C
:101DF0001068C318074A9A4206D3054A1360704711
:101E0000034A05491160F2E701204042F7E7C04666
:101E1000443E00200000042030460120002070478E
:101E200001204042704710B5FFF7DAFF30B583B0AC
:101E30000D001900002A0BD0074B084C01920093AB
:101E40002B000200200002F0A7FC0120FFF7C8FFD2
:101E5000034B1A00F1E7C04690D90410A0D9041032
:101E6000641A051070B52B4B2B4A1A602B4B2C4A69
:101E70001A602C4B9A682A4B9343FAD12A4C01E002
:101E800008CC9847294B9C42FAD3FFF777FE234BA7
:101E9000274A1A60234B9B68DB43DB01FAD1254BB1
:101EA00040229A675A671A67DA66234C09E0234B87
:101EB000234A24488721FFF7B9FF2000FEF7A6FD3B
:101EC0000834214B9C4209D22368002BF5D0012B0A
:101ED000EDD12000FEF7A8FD0C34F2E71B4DA968F8
:101EE0001B4CC022200002F00FFAAC60EFF3058318
:101EF000002B00D000BEFEF753FBFEF771FDFFF78D
:101F0000A5F8144C01E008CC9847134B9C42FAD337
:101F100070BDC04600E00040BFCDFBFE00F00040B9
:101F2000FE7F3C0000C00040DC220020EC220020AC
:101F3000FFFFFF0100F00140CC220020D0D90410A7
:101F400058DA0410F0D90410DC22002000ED00E083
:101F500000000020EC2200201C2300200FB400B55C
:101F600083B0084802F0E8FB049B002B07D005A9CA
:101F70000191180002F0F0FB034802F0DDFB0120A4
:101F8000FFF72EFF38DA04105826051010B5014867
:101F9000FFF7E4FF48DA04109A4200D288547047F1
:101FA000704710B5002802D00B684968984710BDEB
:101FB0000100002007E083001B185B00501C086034
:101FC0001078C01830380A681378303BDBB2092B20
:101FD000F1D97047F0B5DE4657464E464546E0B566
:101FE00083B093461F000C9B9A460D9C0E9B99460E
:101FF0000F9B9B0703D0B8460F00060022E001921A
:10200000A34688464E46B9460700B44207D2551C3F
:102010004B4641462020B84701342A00F5E73D00F1
:102020004F465C46019B9B46B1464646B846370044
:102030002E0007E0013C551C5346185D434639000D
:10204000B0472A00002CF5D135003E0047460F9BD3
:102050009B0707D4100003B0F0BCBB46B246A946AC
:10206000A046F0BDB0464E46B9462F005D46531B14
:10207000B342EFD2541C4B4641462020B8472200C1
:10208000F5E7F0B5CE46474680B585B0944698460C
:102090000C9D0D9C0EAB1B789946109A119B129EBD
:1020A000B7071CD4002B0CD0F7070AD54F46002FDA
:1020B00002D10C37374204D0013B02E030272F55C4
:1020C0000134944201D21F2CF8D9F70707D59C425E
:1020D00005D21F2C03D830272F550134F5E7F7061A
:1020E00012D5770505D4002C03D0944221D09C4210
:1020F0001FD00F9A102A32D00F9A022A37D01F2CE5
:102100000AD830222A5501341F2C05D84A46002A05
:1021100033D02D222A550134039602930194009561
:1021200043466246FFF756FF05B0C0BCB946B0460D
:10213000F0BD621E012C10D00F9F102F0BD0140089
:102140000F9A102AD8D1B206D6D51F2CD4D858222F
:102150002A550134D3E7023CCBE71400C9E7B206A5
:10216000EED41F2CECD878222A550134C7E71F2C57
:10217000D2D860322A550134C1E7720703D52B2229
:102180002A550134C8E73207C6D520222A55013422
:10219000C2E7F0B5DE4657464E464546E0B593B039
:1021A00081468A46089209931CAB10CB1B789B464C
:1021B0001E9D219B9846002C03D1102342469A4332
:1021C00090468023DB0046461E4042461A4212D00B
:1021D000002C22D000260EE03033D9B2771C0AAB97
:1021E00099552900200001F031F8AC4216D31F2F79
:1021F00014D83E0004002900200001F027F8CBB2DB
:10220000092BE9D94246920605D54121C918C9B220
:102210000A39C9B2E2E76121F8E72700434606938D
:10222000209B05931F9B049303955B4602930197A4
:102230000AAB0093099B089A51464846FFF721FFD5
:1022400013B0F0BCBB46B246A946A046F0BDF0B5FF
:10225000DE4657464E464546E0B597B00A900B918C
:102260000C929A46209B9946219F22AA13789B465E
:10227000249B0993259C289B98464A463A4302D1C1
:102280001032934398468022D2004546154043467B
:1022900013420AD04A463A4341D000252E00534605
:1022A0000D934D46099B9A461BE02E0053460D9315
:1022B0004D46099B9A4614E03033DAB2731C9946B6
:1022C0000EAB9A55524623002800390000F0FCFF5F
:1022D000BC4226D819D04B461F2B1CD84E460500B1
:1022E0000F00524623002800390000F0EDFFD3B262
:1022F000092BE1D94246920605D54122D218D2B225
:102300000A3AD2B2DAE76122F8E7AA45E3D94E46A3
:102310000D9B9A4608E04E460D9B9A4604E0002627
:1023200002E04E460D9B9A4643460693279B059333
:10233000269B0493099B03935B46029301960EAB85
:10234000009353460C9A0B990A98FFF79AFE17B020
:10235000F0BCBB46B246A946A046F0BDF0B5DE468D
:1023600057464E464546E0B591B0804689460C92A8
:102370009A461A9C1B9D22002B002000290001F088
:1023800036FA002800D0ECE001225242D44B200063
:10239000290001F027FA002800D0E2E00122524291
:1023A000D04B2000290001F007FA002800D0D8E027
:1023B000002200232000290001F0FEF9002800D0AF
:1023C000E4E0069407958023DB001E9A1A400D92E4
:1023D0001E9A1A4201D106231C93069807990200FF
:1023E0000B000892099303000A00024300D1D9E0D0
:1023F000080D4005400DBC4EB44660440A03120B64
:102400001E00BA4B13431F0001F004FAB84AB94B3F
:1024100001F087F9B84AB94B01F05CF908900991CD
:102420000022B74B3000390001F04BF9B54AB64BEA
:1024300001F077F902000B000898099901F04AF9B8
:1024400001F000FA834601F0E5F906000F00AF4AFB
:10245000AF4B01F066F90022AE4B01F03BF901F001
:10246000F1F90890AC4AAD4B3000390001F059F950
:1024700006000F00089801F0CDF9A94AA94B01F018
:1024800050F902000B003000390001F01AF9060083
:102490000F0002000B0001F044F90A900B91089B19
:1024A000A14A9446634400210022089109921B0529
:1024B00009930023089332003B003000390001F0FB
:1024C00009F90E900F9132003B0000208021C905D0
:1024D00001F0F7F806000F000022944B0A980B99C0
:1024E00001F001F90022924B01F0F4F802000B0018
:1024F0000A980B9901F0F7F800228E4B01F0EAF8E8
:1025000002000B000A980B9901F0EDF802000B0095
:102510003000390001F0DEF802000B000E980F9930
:1025200001F0E1F80022714B01F0D4F8089A099B00
:1025300001F0F7F806000F0008960997069A079B26
:1025400001F050F900282FD001235B429C46E34460
:102550000022774B3000390001F0C5F8089009914E
:1025600022E01E9B04931D9B03931C9B02930094EB
:10257000019553460C9A4946404600F0FFF811B0C9
:10258000F0BCBB46B246A946A046F0BD00210022E1
:1025900006910792069480231B069C46AC44634632
:1025A000079310E700239B465B466333C62B20D876
:1025B00004261E9B1B0528D5089A099B1900114368
:1025C0000FD05D4A5D4B0698079901F003F900288A
:1025D0007AD000225A4B0698079901F0EDF80028AE
:1025E00072D01C9B5B4506DD5A469B1A013B1C932F
:1025F00003E00526DDE700231C938023DB001E9A01
:102600001A431E92002600239B461D9B9E4265D2C4
:102610009F1B02231E9A1A400A921E9A134202D04E
:10262000002E00D000275B46002B07D0089A099B9C
:102630000698079901F057F80690079100220023A9
:102640002000290001F0B8F8002800D07CE03D4BC4
:102650001E9A1340049303971C9B0293069B079CAE
:102660000093019453460C9A4946404600F086F880
:10267000002E00D183E71E9B9B0671D54525441C87
:102680005346020049462800C0475A46D317D2187D
:102690005A4005230593013E0496002303930A3311
:1026A00002935B46DB0F019300925346220049469A
:1026B0004046FFF76EFD0A9B002B00D15FE702004A
:1026C00047460C9E1D9D53E01C9B002B9DD00D9BEF
:1026D000002B9AD01C9B013B1C9396E7002798E7A0
:1026E000FFFFEF7FFFFFEFFF01FCFFFF0000F03F68
:1026F000FB799F501344D33FB3C8608B288AC63FF1
:102700000000F83F61436F63A787D23F71A3790947
:102710004F930A400000E03F1655B5BBB16B024035
:10272000EF39FAFE422EE63FFF03000000002C4086
:1027300000002440000018402D431CEBE2361A3FF5
:1027400080842E41FFF7FFFF069C079D2200290091
:1027500080200006844661440B000692079376E7CA
:1027600065258CE7541C534649462020B847220073
:10277000931BAB42F6D3100001E7C046F0B5DE462E
:1027800057464E464546E0B595B0069007919346AC
:102790009946209F1E9A1F9B1000190001F027F8F0
:1027A000002831D101225242BF4B1E981F9901F0DF
:1027B00003F8002837D101225242BC4B1E981F99C2
:1027C00001F010F800283DD10022B94B1E981F9946
:1027D00001F008F8002850D10022B64B1E981F992E
:1027E00000F0EAFF002848D1002200231E981F991C
:1027F00000F0E2FF002850D100239846229B5B05A1
:1028000000D4B6E0002458E0229B0393219B02935E
:1028100003230193A84B00934B465A460799069809
:10282000FFF7D8FB0EE1229B0393219B0293042325
:102830000193A24B00934B465A4607990698FFF71F
:10284000C9FBFFE00423229A1A4022990B4210D0C0
:102850009B4B002A0FD004222299039121990291C7
:10286000019200934B465A4607990698FFF7B2FB30
:10287000E8E0944BEDE70322EEE7229B0493219BD3
:10288000039302971E9B1F9C009301944B465A464C
:1028900007990698FFF762FDD4E01E9A1F9B00205F
:1028A000002100F00EFF1E901F9101239846A5E71E
:1028B0000CAB30221A55013F01341F2C01D8092FCF
:1028C000F6D81E981F9900F0BDFF050000F0A2FF8A
:1028D00002000B001E981F9900F0F3FE7A4BFA00DD
:1028E0009B181A685B680A920B9300F01AFF089015
:1028F000099100F0CBFF060000F088FF02000B00FA
:102900000898099900F0DDFE0890099100226F4BAC
:1029100000F068FF00282ED00136300000F076FF6E
:1029200002000B000A980B9900F04CFF002801D020
:1029300001350026002F2CD1280000F06BFF02008B
:102940000B001E981F9900F0BCFE06000F0000222D
:102950005E4B00F031FF002846D100225B4B300077
:10296000390000F03FFF00283ED1EB073CD5013590
:102970003AE0062746E70022544B0898099900F0F0
:102980001BFF0028D6D1002E01D0F307D2D5013687
:10299000D0E7AA461F2C11D8013F0A21300000F0D1
:1029A00055FC651C30310CAB19550A21300000F084
:1029B0004DFC092E0ED906002C00EBE755461F2CC6
:1029C0000CD87B1E002F09D00CAA302111551F00F6
:1029D0000134F4E72B0055461C00F0E71F2C03D808
:1029E0000CAB2E221A5501341F2C10D80A212800B6
:1029F00000F004FC661C30310CAB19550A2128008C
:102A000000F0FCFB051E01D03400EDE73400032389
:102A1000229A1340012B1CD01F2C06D84346002BB2
:102A200032D00CAB2D221A550134229B0393219BEB
:102A3000029301940CAB00934B465A4607990698B3
:102A4000FFF7C8FA15B0F0BCBB46B246A946A0468F
:102A5000F0BD219B002B13D04346002B02D10C3339
:102A600013420FD0219B013B2193190003E00CABD3
:102A700030221A5501348C42CED21F2CF7D9CBE725
:102A80002199F8E72199F6E7229B5B0704D50CAB67
:102A90002B221A550134C8E7229B1B07C5D50CAB66
:102AA00020221A550134C0E7FFFFEFFFFFFFEF7F41
:102AB00065CDCD4165CDCDC174DA041078DA04104E
:102AC00068DA041070DA041020DC04100000E03F23
:102AD000F0B5DE4657464E464546E0B593B08246D1
:102AE000884693461193002900D106E300255646F7
:102AF000119B1878002800D102E3252809D06C1C0E
:102B00005B462A004146B047119B013311932500D3
:102B1000EEE701331193002720E001231F43013228
:102B20001192012418E002231F4301321192012463
:102B300012E004231F430132119201240CE0082308
:102B40001F4301321192012406E010231F4301327A
:102B50001192012400E00024002C09D0119A13786E
:102B6000203BD9B21029F6D88B00C449CB589F46D8
:102B7000119B1A781300303BDBB2092B10D92A2A9B
:102B800013D00B94119B1A782E2A1ED0119A137809
:102B9000683BD9B2122959D88B00B949CB589F4606
:102BA00011A8FFF705FA0B90ECE71C9B1A1D1C926D
:102BB0001B68002B04DB0B93119B01331193E1E79E
:102BC000022217435B420B93F6E78022D2001743A1
:102BD0005A1C11925A781300303BDBB2092B0BD9E7
:102BE0002A2AD3D11C9B1A1D1C921C68002C08DBBE
:102BF000119B01331193C9E711A8FFF7D9F904001C
:102C0000C4E70024F4E780235B003B43511C11918F
:102C100051786C2901D01F0018E0C0239B001F438E
:102C20000232119212E080233B43511C11915178E2
:102C3000682901D01F0009E0C0231F43023211920E
:102C400004E080235B001F4301321192119B18782E
:102C5000672816D8252826D30300253BDAB2422A56
:102C600021D89300874AD3589F4680239B001F4357
:102C700001321192EAE780235B001F430132119277
:102C8000E4E778280FD869280DD30200693AD2B258
:102C9000012393407C4A13420FD11A0600D507E264
:102CA0005B0500D594E16C1C5B462A004146B047A9
:102CB000119B0133119325001AE778280AD0622866
:102CC0003AD06F283BD058283CD010239F43063B76
:102CD0009C4601E010239C46582836D0692803D032
:102CE000642801D00C2297437A0501D5012297432D
:102CF00069282DD064282BD0BA0500D5A2E0FA05AA
:102D000000D5C3E07A0600D4D5E01C9A111D1C91B1
:102D10001168FF220A4005970B9B049303946346B6
:102D200002930023019300925B462A004146300043
:102D3000FFF72FFA05002AE002239C46CCE7082380
:102D40009C46C9E710239C46C6E720221743C5E7E7
:102D5000BA0520D4FA0550D47A0666D51C9A111DFE
:102D60001C911168FF220A40D017111841400597A5
:102D70000B9B0493039463460293D20F019200913C
:102D80005B462A0041463000FFF703FA0500119B1D
:102D900001331193ACE61C9A073207218A431100D4
:102DA00008311C91116853689946DB170C930D93F9
:102DB0000C9A0D9B100048400E904A4653400F93CA
:102DC0000E980F990C9A0D9B801A99410E900F91B5
:102DD00008970B9B0793069463460493002305937F
:102DE0004B46DA0F0292009001915B462A00414661
:102DF0003000FFF72CFA0500C9E71C9A111D1C9141
:102E00001268D0171118414005970B9B0493039447
:102E100063460293D20F019200915B462A0041461D
:102E20003000FFF7B6F90500B1E73A0605D51C9A60
:102E3000111D1C910023D25E96E71C9A111D1C9156
:102E4000126891E71C9A073207218A431100083162
:102E50001C9108970B9B07930694634604930023E9
:102E60000593029353681268009201935B462A000F
:102E700041463000FFF7EBF9050088E780DA0410DF
:102E8000C4DA041010DB0410419000001C9A111DDC
:102E90001C9105970B9B04930394634602930023B4
:102EA0000193136800935B462A0041463000FFF708
:102EB00070F905006BE73A0606D51C9A111D1C91A6
:102EC00012681204120C26E71C9A111D1C9112683C
:102ED00021E7462819D01C9B0733072293431A0089
:102EE00008321C9204970B9A039202941A685B684A
:102EF000009201935B462A0041463000FFF73EFCFA
:102F00000500119B01331193F2E520231F43E2E7F3
:102F1000672801D0472802D180231B011F43452881
:102F200001D0472801D120231F431C9B07330722D0
:102F300093431A0008321C9204970B9A039202944E
:102F40001A685B68009201935B462A004146300094
:102F5000FFF704FA0500119B01331193C8E5022322
:102F60001A003A4091463B421DD001241C9B1A1D79
:102F70001C926F1C18785B462A004146B0474B46AE
:102F8000002B14D1119B013311933D00B0E5571C68
:102F90005B4641462020B04723003A005C1C9D421E
:102FA000F5D81500E2E701232A000B9DF6E73A0069
:102FB000B1460B9E06E0571C5B4641462020C847A1
:102FC0002C003A00651CA642F5D817004E46D9E7FA
:102FD0001C9B1A1D1C921B689A46002C25D10122AD
:102FE0005242534601E001330A001978002902D009
:102FF000511E002AF7D152469B1A8022D200390076
:1030000011408946174202D0A34200D92300022270
:103010001100394010913A4209D02A002500574644
:103020009A4633004E46994621E02200D9E72A000D
:103030004546A04606E0541C5B4629002020B047C8
:103040003B0022005F1C0B999942F4D84446A846E5
:103050003B00250057469A4633004E46994606E007
:103060001D000137541C5B464146C8472200387892
:10307000002804D0002EF4D06B1E002DF0D11500D6
:1030800053464E46109A002A03D1119B01331193E7
:103090002EE50B9F2A0006E0551C5B46414620208A
:1030A000B04723002A005C1C9F42F5D81500ECE7CE
:1030B00021233B431C9A111D1C9112680593082380
:1030C00004930394083302930023019300925B4618
:1030D0002A0041463000FFF75CF80500119B0133E0
:1030E000119305E56C1C5B462A0041462520B0473C
:1030F000119B013311932500FAE40B4B9A46F5E43A
:10310000B2465D450DD35B465A1E5B4641460020E4
:10311000D047280013B0F0BCBB46B246A946A04633
:10312000F0BD2A00F1E7C046A11F00100EB430B573
:1031300084B0010007AC08CC03940122054D009433
:1031400052422800FFF7C4FC04B030BC08BC03B0F6
:103150001847C046991F001010B582B0044C009368
:1031600013000A0001002000FFF7B2FC02B010BDFE
:10317000991F001000B585B0029003910121044809
:10318000009313004A4202A9FFF7A2FC05B000BD5C
:10319000A31F001001480421014B184720120020F2
:1031A000C531001010B5010018231B8814221088A7
:1031B000984710BD10B5010018231B8816221088EF
:1031C000984710BDF0B5C64600B507000E000025B3
:1031D0000123984600E00135B5420AD2AC003C1903
:1031E0002068FFF7DFFF20600028F4D10023984615
:1031F000F1E7404680BCB846F0BD0000124A936F2C
:103200009B0815D29066D166002905D0FFE7FFE73D
:10321000FFE7516F106F704704B580210906C21790
:103220005140002800D0C84349F0AAFE002104BD47
:10323000F0B5146E556E576F166FFFF7E3FF146607
:10324000556657671667F0BD000000D0114A936FAE
:103250009B0813D210665166002905D0FFE7FFE7EF
:10326000FFE7516F106F704704B5002801D00020B0
:10327000C04349F085FE002104BDC046F0B5146E80
:10328000556E576F166FFFF7E5FF14665566576763
:103290001667F0BD000000D094464A4A926F92082B
:1032A000624601D228E0C046F0B5464E346E756ED7
:1032B000776F366F00F020F89446424A14665566E0
:1032C000576716676246F0BD94463E4A926F920871
:1032D000624601D254E0C046F0B53A4E346E756E87
:1032E000776F366F00F04CF89446364A1466556690
:1032F000576716676246F0BD002B24DB11D000290A
:103300003EDA00B5C943404200D1013100F038F83F
:10331000C943404200D10131DB43524200D1013365
:1033200000BD002AEBD1002801D1002905D00020E2
:10333000C90FC90701D1C043410800B549F0F8FDE4
:103340000022002300BD00B500290ADBDB43524206
:1033500000D1013300F014F8C943404200D10131DB
:1033600000BDC943404200D10131DB43524200D18C
:10337000013300F005F8DB43524200D1013300BDB8
:10338000002923D1002B18D1002A0CD0BC460D4FA8
:1033900038667A6600210023FFE7FFE7FFE77A6FD0
:1033A000386F67467047002801D00748010000B514
:1033B00049F0BEFD0022002300BD02000B000020EA
:1033C00000217047000000D0FFFFFFFF002B00D05E
:1033D000BFE0130C28D1002AE7D080B4114F396622
:1033E0007A66FFE7FFE730B4040C7B6F396F1B048C
:1033F00023433B667A66FFE7FFE7FFE7C04684B2F8
:103400007B6F3D6F1B0423433B667A66FFE7FFE754
:10341000C04600232C042D0C7A6F386F00196941C7
:10342000B0BC7047000000D0F0B594460025140EE3
:1034300001D112020835140F01D112010435940F85
:1034400001D192000235D40F01D152000135D40BC5
:103450000134254F7C66254C3C660E0C93B2FFE789
:10346000FFE7FFE73C6F6643360C7703BE467343C6
:10347000DF0B5B04C01AB941130C7343DB18C91A84
:10348000CE086643360CB64493B273431F0F1B013C
:10349000C01AB941130C73431F0B1B05C01AB94165
:1034A000860D8F023E436643360C092D24DB520AFB
:1034B0007243801A7703460A6643360C16235B1B59
:1034C000DE40DF40BF1964466643821B7046043508
:1034D00006330100D940A840C01900D30131A242EF
:1034E00006D20023F0BD0000000000D0FFFFFFFF68
:1034F000121B0130F3D3F1E709277F1BFE4064461E
:10350000A2B27243801A00D20139220C7243130C0A
:103510001204821A99410B007046043513370100DA
:10352000F940A840801900D30131002B02D1A242FA
:103530000AD2F0BD013000D30131121BFAD2013B97
:10354000F8D1A24200D2F0BD013000D30131121BEC
:10355000F7E7F0B51C0C00D080E00CB400251C0A85
:1035600004D11B02160E3343120208351C0B04D182
:103570001B01160F3343120104359C0B04D19B0031
:10358000960F334392000235DC0B02D192185B4157
:1035900001351C00971864410134464F7C66464C47
:1035A0003C660E0CFFE7FFE7FFE7C0463C6F664353
:1035B000360C7703BE4697B27743C01B00D2013961
:1035C000C01B00D201399FB27743C91BC91B170C1E
:1035D00077437E04FF0B801BB941CE086643360C4F
:1035E0000C2D33DBB644120B1F053A431B0B97B26D
:1035F0007743C01B00D201399FB27743C91B170C18
:1036000077433E043F0C801BB941860D8F023E4339
:10361000664329277F1BFE400C3D7746AF40BF190C
:1036200030BCA2B2ABB272437343801A9941220CF0
:103630007243130C1204801A994102000B000137E7
:10364000001BA941F9D2781E0021F0BD0C277F1B79
:10365000FE4077467F0BAF40FF19E0E700245D1C7A
:1036600007D0144F7D663966FFE7FFE7FFE7FFE706
:103670003C6F95B29EB265436643401BB141150C49
:103680001E0C6543664336042F0C3E432D04401B3D
:10369000B141994204D202000B0020000021F0BD8C
:1036A00001D19042F7D3801A994101349942F2D363
:1036B000F6E70000000000D0FFFFFFFF4840414058
:1036C000484018B41B4B5B68FC46019308BD04DFFF
:1036D000333A001018B4174B1B68FC46019308BD21
:1036E00000DF3D3A00109446134A926F920809D2C7
:1036F000624618B40F4BDB68FC46019308BD0CDF33
:10370000F53C00100C4AF0B5146E556E576F166FED
:103710006246FFF7EEFF084A14665566576716675C
:10372000F0BD18B4034B9B68FC46019308BD08DF4D
:10373000993B0010D4420020000000D0FFB550405B
:103740004240504059404B40594000E0FFB5154FB2
:103750004C00640D03D0BC4204D10C0314D80020EB
:10376000090D09055C00640D03D0BC4204D11C03A3
:103770000AD800221B0D1B0501264B4009D44B40E3
:1037800003D58B4200D18242FFBD9942FCD19042C9
:10379000FFBD0B43DB1803431343F5D0C94349185E
:1037A000FFBD0000FF07000000B5FFF7CFFF01D00D
:1037B000002000BD012000BD00B5FFF7C7FF80411C
:1037C00000BDC04600B5FFF7C1FF01D9002000BD14
:1037D000012000BD00B5FFF7B1FF01D9002000BDF9
:1037E000012000BD00B5FFF7A9FF804100BD012009
:1037F00040054A00121804D85A00121801D80020B7
:103800007047012070470020704700000021002809
:1038100005D17047C1174840401AFAD0C90713B5FF
:10382000064B1B6898470CBC441CA2401005120BA9
:103830000349091B09051943114310BDD443002056
:103840001F04000010B54C00620D8023D218DB006D
:10385000D21A5B057E2A10DD9E3A13DACC170903D3
:10386000490819435242D140640001341532202ADC
:1038700005DAD0400843604310BD002010BD084663
:10388000604310BDC80FC018013810BD18B4044BF8
:103890005B6AFC46019308BD24DFA53E00100000D2
:1038A000D442002018B4044BDB6DFC46019308BDE4
:1038B0005CDFB13F00100000D4420020C94211D3A8
:1038C00000B549004908002200F018F8002904D486
:1038D000002240428A41114600BD80210906002095
:1038E00000BD000018B4044BDB6EFC46019308BD1C
:1038F0006CDFB33E00100000D442002018B4044B2B
:103900009B6FFC46019308BD78DFCF3E001000009E
:10391000D442002018B4044BDB6FFC46019308BD71
:103920007CDF3D3F00100000D442002070B513231F
:103930001C78012C12D0012C12DC214B214A9364FB
:103940002148FFF72FFC214B186070BD1C491D4A10
:103950009800815001331F2BF8D9ECE70023FAE7D8
:103960001B48FFF727FC05001A48FFF723FC023825
:1039700003789B007F2B09DD12488022290000F08C
:10398000C3FC022C08D0022CDADCD6E7124B134A17
:1039900013483221FEF74AFA124B1A88B5231B024C
:1039A0009A4209D1104B1A88104B9A4204D1104BFD
:1039B0001A88104B9A42E6D00020FEF7CFFAC04694
:1039C000F9390010D44200204C330000D4430020C9
:1039D000534400005346000070DC041014DD041052
:1039E000C4DC041054380000D838000049460000F8
:1039F0009C3800005946000007B56046002800D1F9
:103A000000BE01880A0A0230DF2AFAD1C9B2820850
:103A100004D3028840880004104300E00068024A92
:103A20005050039007BD0000D44200200FB403BCE7
:103A30000CBCF0B50124E407634000E0F0B50C0DC8
:103A4000CF0F661E3605891B640503D3C943404268
:103A500000D30131640D03D0661CF60A07D0E41BC5
:103A600000207F00791C89078912803C24031D0DEA
:103A7000DF0F6E1E36059B1B6D0503D3DB435242E1
:103A800000D301336D0D03D06E1CF60A07D0ED1B79
:103A900000227F007B1C9B079B12803D2D032F1B68
:103AA000661B58D4A446202E46DA20371400BC40AA
:103AB0001D00BD40F24033412A4380185941CB0FCD
:103AC00005D0C943C043002264425041514162467F
:103AD0004D0D28D10D0D07D100281FD024194041CC
:103AE0004941013A0D0DF9D0640006D3013000D3ED
:103AF0000131002C01D140084000013A0BD4941C44
:103B0000E40A04D112051144DB071944F0BDD907BA
:103B1000204B194300E0D9070020F0BD0029DDD17A
:103B2000002CDBD1F0BD0132C6074008CD07284389
:103B30004908002EE1D0D9E73C2E29DA203E403753
:103B40001400BC4000D00124F24014431A00BB40D2
:103B50001C43D317ACE7AC46202F08DA203604000C
:103B6000B4400D00B540F84039412843A5E73C2F4B
:103B70000CDA203F40360400B44000D00124F84065
:103B800004430800B1400C43C117EAE710001900D4
:103B9000002494E70000F07FF0B50C0D661E36059A
:103BA000891BE60A6405640D02D0651CED0A04D089
:103BB000002001210905803C2403A4461C0D671E3A
:103BC0003F05DB1BE70A6405640D02D0651CED0AA6
:103BD00004D0002201231B05803C24037740644469
:103BE00097B484B296B27443070C7E43150C6F43AE
:103BF00080B26843361802D3012000043F18300415
:103C0000350C00197D41844688B29AB250430C0CA1
:103C100062431F0C7C438EB27E43921902D301266D
:103C20003604A4191604170C3618674101BC81B27A
:103C30009AB25143040C62431B0C5C4380B258435C
:103C4000121802D30120000424181004130C401889
:103C500063412D185E410020474106BC88B293B2F3
:103C600058430C0C6343120C544389B251435B1804
:103C700002D301210904641819041A0C09186241BD
:103C80006D1856410020474118BCF902720D1143CE
:103C9000F0026A0D1043ED020A0D03D16D19404187
:103CA0004941013B124E9B1B7600B3420ED26D0080
:103CB00007D30130002671416646354301D14008E3
:103CC00040001B05C918E4072144F0BD0BDA01339D
:103CD00006D1013004D101314F0D01D04908F2E77E
:103CE000E1070020F0BD013631050020EBE70000C0
:103CF000FF030000F0B51C0D671E3F05DB1BE70A44
:103D00006405640D02D0661CF60A04D0002201236B
:103D10001B05803C2403D0252D060026F6432E6685
:103D20001E096E66CE0FF619B44649004F0D02D03B
:103D30007E1CF60A03D000200021403F3F033E1BBB
:103D4000B600B444013F7F05C91B49082E6F0136F8
:103D500076089C02950D25437543ED137543AD130D
:103D600001356D10F603761B0CB4CC02450D2C43C7
:103D7000A2B2B3B25A43270C7B43350C6F43A4B2B3
:103D80006C431B1902D3012424043F191C041D0C8D
:103D9000A4187D4124196D41009A91B2ACB26143DF
:103DA000170C7C432B0C5F4392B25A43A41802D3E6
:103DB00001221204BF182204230C52187B41019CDB
:103DC0006C431B19520ED9010A434401A01A81B257
:103DD000B2B2514303145A43360C734387B277434C
:103DE000D617D21900277E4136049B191704160CEA
:103DF0007F185E417316ED18F3010026803375417C
:103E0000A90F06D16400690AE8055B0A184309D2C4
:103E10002FE00422944480337541A90AA8059B0A27
:103E2000184326D3404149412404009A019B0D00C8
:103E30005543641B4343E41A95B286B27543170C8D
:103E40007E43030C5F4392B25A43B61802D3012259
:103E50001204BF183204330C52197B4152429C4168
:103E6000002C02D40022013051414008CA071043FF
:103E7000490802B06246D7079210084BD218084B87
:103E80009A4203D212058918C919F0BD0020002AF0
:103E900001DC3900F0BD01331905F5E7FD03000031
:103EA000FE070000002200B5203200F010F80800E4
:103EB00000BD002200B500F00CF8CA179A4200D1EC
:103EC00000BDD8430121C907414000BD00220B15A8
:103ED0000AD410B5944600F0A7F81414013400DA9F
:103EE0000021CB17144C204700200021704762446A
:103EF000343A0CD40C2A07DA040091409040524224
:103F00002032D440214310BDD843D94310BD2032C4
:103F100007D40C469440524220321141D0402043F5
:103F200010BD0800C917203203D45242203210417C
:103F300010BD1800190010BDEF3E00104A00520DD0
:103F4000144BD21A13DDFF2A1EDAD205CB0FDB0782
:103F50001A43C300400F0903490A084310435B009A
:103F600001D301D0013070474308FBD2704702D023
:103F7000C80FC00770470A0312130132F8D1420F6D
:103F8000072AF5D1012200E0FF22C80F00028018A5
:103F9000C00570478003000000210A00002104E0F2
:103FA00000210A00C11704E00022002306E0C046F9
:103FB0000022CB1758405940C01A994130B5184CCF
:103FC000A21A002903D1010010D00020203A4C157C
:103FD00012D104D2013A001849414C0DFAD3114CC8
:103FE000A24204D212058918DB07C91830BDD2439A
:103FF000520D00200021F5E703D4013A0018494191
:10400000FBD50B324405C00A4D052843C90A64009C
:1040100003D0002460416141E1E7E0D34408F8E7C0
:1040200032040000FE0700000A0DCC0F531E1B05D2
:10403000C91A520503D3C943404200D30131520D7E
:1040400003D0531CDB0A07D0121B00206400611C44
:1040500089078912803A1203014BD21A7047000077
:10406000FF03000051434343C9188C46110C83B22F
:104070004B4310B4040C614392B280B2504362438C
:104080001C041B0C001910BC59411304120CC0185D
:10409000514161447047000007B5484041404840E5
:1040A00001E0C04607B54200120E03D0FF2A03D13B
:1040B000420218D8C00DC0054A00120E03D0FF2AD4
:1040C00003D14A020FD8C90DC9050122414005D4C8
:1040D000414001D5814207BD884207BD01434918CF
:1040E00001D0C043001807BD00B5FFF7DBFF01D0CA
:1040F000002000BD012000BD00B5FFF7D3FF01D9AE
:10410000002000BD012000BD01231B064200D21883
:1041100004D84A00D21801D8002070470120704707
:1041200070B513231E782A48FFF744F80500012EC6
:1041300011D0012E09DDAB1E1B789B007F2B40DDCB
:1041400024488022290000F0DFF82348FFF72AF8EE
:10415000224B186070BD1F485422290000F0D4F88B
:104160001F4B1A881F4B9A421CD1A7239B011A8808
:104170001D4B9A4216D11D4B1A881D4B9A4211D1E4
:104180001C4B1A8894239B019A420BD11A4B1A8814
:104190001A4B9A4206D11A4B1A681A4B9A4201D10D
:1041A000152307E01848FDF7D9FE184C094A990075
:1041B0008C5001331F2BF8D9144B064A1362D3617C
:1041C000B7E7134B134A14484221FDF72FFEC046B0
:1041D00053460000D84300204C330000D443002055
:1041E000EE290000C40F0000C20D0000962B000055
:1041F000C0B50000182B0000CC2A000010B500004C
:10420000FC2C000051ED8764641A05101D4200105B
:1042100028DD0410A8DD04105CDD041007B560463D
:10422000002800D100BE01880A0A0230DF2AFAD134
:10423000C9B2820804D3028840880004104300E019
:104240000068024A5050039007BD0000D843002088
:1042500010B5002804D04018034B984200D810BD78
:104260000248FDF77BFEC04600000420BCDD0410C0
:1042700070B50500084E300048F0C2FE280038F046
:10428000CDFA0400300048F04BFE29002000FFF773
:10429000DFFF200070BDC046CC22002070B50400B6
:1042A0000D00094E300048F0ABFE2900200038F028
:1042B00033FE0400300048F033FE29002000FFF7F1
:1042C000C7FF200070BDC046CC22002070B504009E
:1042D000054D280048F094FE200038F0A9FA280087
:1042E00048F01EFE70BDC046CC22002001480421CB
:1042F000014B184730120020C5310010014B1B68DC
:104300001847000030120020014B5B68184700007E
:104310003012002010B5FFF7ABFF10BD10B5FFF74E
:10432000A7FF10BD10B5FFF7D1FF10BD10B5FFF707
:10433000CDFF10BD10B5FFF7C9FF10BD084B5B6A7C
:10434000994209D8064A926A824207D2994201D01C
:10435000012002E0002000E0002070470120FCE77F
:104360000040054010B50300080011001B68984785
:1043700010BD0000F8B507000D001600437D002BAE
:1043800002D0002400200CE00368110028009847A8
:104390002DE03B7D10E03B68154802219847601CEA
:1043A0000134B44214DA002CF3DD2B19013B1B78E5
:1043B0000D3B5A425341DBB22A5D0A2AF0D1002B51
:1043C000EED1A042E7DA3B68211A28189847E2E7C5
:1043D000B04203DA3B68311A28189847002E06DDF0
:1043E000AD19013D2B780D3B5A4253413B75F8BD49
:1043F000A8DE041070B505000368002B16D00C4B26
:104400001C6805E0290004C92000FFF7B3FF2469F8
:10441000002C09D02368002BF9D0064B1B68002B19
:10442000F0D0A342F3D1EDE700232B6070BDC0466E
:10443000383E0020403E002070B505000C000B689F
:10444000802B05D023685A1C2260E418257170BDAA
:104450000800FFF7CFFFF5E710B5002B02DB026085
:10446000436010BD024B034A03483F21FDF7DEFCC9
:1044700030D30410ACDE04104CD3041010B582B05D
:104480000400FCF799FF02000B006846FFF7E4FF09
:10449000009A019B22606360200002B010BD000002
:1044A00070B582B0060014001D00FA2292000023AD
:1044B00006980021FFF7D6FD02000B0012196B4190
:1044C000002B09DB6846FFF7C7FF009A019B3260AB
:1044D0007360300002B070BD01225242004BF1E720
:1044E000FFFFFF7F30B585B004000D0002A8FFF785
:1044F000C5FF029A039B00952000FFF7D1FF200023
:1045000005B030BD10B582B00400049805991218AA
:104510004B41002B09DB6846FFF79EFF009A019B89
:1045200022606360200002B010BD01225242014BA4
:10453000F1E7C046FFFFFF7F70B584B004001600AE
:104540001D0002A8FFF79AFF029A039B00960195AF
:104550002000FFF7D7FF200004B070BDF8B5CE46AD
:10456000474680B507000E00914698461BE0A368B9
:10457000002B04D0310038009847002818DC24694B
:10458000002C06D00C4D2D68002DF0D0A542F6D1A0
:10459000EDE748464146FFF7D1FE002806D101204D
:1045A0000021FCF729FF054B1C68E9E70120404288
:1045B000C0BCB946B046F8BD403E0020383E0020A1
:1045C00000B583B0FA2189006846FFF78BFF009A97
:1045D000019B024848F0F4FC03B000BDD422002047
:1045E00010B5024848F09CFC10BDC046D422002003
:1045F000F0B5CE46474680B583B006000D00904624
:104600001C00FFF7DDFF81466B1C05D0002C08D095
:10461000194F1A4B1C6807E030003EF04DF90500B9
:10462000F4E7174FF5E72469002C17D02368002B17
:10463000F9D0144B1B68002B01D0A342F3D12A0000
:1046400031002000B8474346002BECD06B46D91D03
:104650000A230B7001222000B847E4E74B46002BE9
:1046600007D16B1E9D41E8B203B0C0BCB946B0464D
:10467000F0BDFFF7B5FFF4E765430010383E0020BA
:1046800075430010403E002010B5030008001100E3
:10469000002B05D1044B1A685B68FFF75FFF10BD64
:1046A00001204042FBE7C04620D6041010B50300AD
:1046B00008001400013B012B06D800230022210032
:1046C000FFF796FF200010BD01204042FBE70120CC
:1046D00040427047012040427047012040427047ED
:1046E0000300002002229A4240417047094A01E03B
:1046F00010331A001368002B08D08342F8D1002928
:1047000007D1036913600023036102E0002900D090
:1047100010607047383E002010B5064B1C6801E061
:1047200098472469002C03D06368002BF8D1F8E780
:1047300010BDC046383E002070B505003EF0BCF804
:1047400004000023012201002800FFF751FFFFF7BA
:10475000E3FF200070BD000070B5A2B004000E00A1
:10476000FFF72EFF0500002301930A4833002200C3
:1047700001A9FEF7FFFC040001A8FFF73BFEFFF7CD
:10478000CBFF002D02D1200022B070BDFFF728FF23
:10479000F9E7C046394400100FB400B583B004A94E
:1047A00001C90191FFF7D8FF03B008BC04B0184756
:1047B00010B500F021F9012010BD000000B585B052
:1047C000020000236846FFF7B7FE009A019B012113
:1047D00003A8FFF7C3FE002802DB03D003AB187861
:1047E00005B000BD034B044A9E2104484900FDF773
:1047F0001DFBC04640D5041094DE041050DE0410AA
:1048000010B582B00C00144BC3185A425341134ADE
:104810005B009B5E8B4204D06B46DA1D1470002156
:1048200015E06B46DA1D0D23137000210029F3D12A
:1048300083699B06FCD41378036001310132F5E7EC
:1048400083699B06FCD4137803600131013200298F
:10485000F6D002B010BDC0460080FCBFEC44002082
:1048600082B000226B46D91D06E08369DB06FCD4CA
:1048700003680B7001320131002AF6D06B46D879FB
:1048800002B0704770B506000D00002405E0315DF0
:10489000034B1868FFF7B4FF0134AC42F7DB70BD7F
:1048A000F0440020F8B506000D00002705E07C1C50
:1048B000F719FFF7D5FF38702700AF4204DA0E4A28
:1048C00010688269D206F2D50C4A1268002A0CD010
:1048D000094A12685021916310003430526B183924
:1048E00011408022520102431160002F01D0380094
:1048F000F8BD033FFBE7C046F0440020C83D002060
:1049000010B5064B1B68002B06D0054A1268002123
:104910009163044A1068984710BDC046C83D002006
:10492000F0440020CC3D002070B505000E001C4B6B
:104930001A681C4BD31859424B4114331C000028F1
:104940001ED0194B1B68002B04D0174B1D60174B52
:104950001E6070BD16492000FBF7DCFE012120001F
:10496000FBF7C8FE0E4B1B6850229A6319003431C6
:104970005B6B183A1A4080235B010B431A60E4E733
:10498000094B1B68002BE0D000239363002120001B
:10499000FBF7B0FE06492000FBF7E6FED5E7C04670
:1049A000F04400200080FCBFC83D0020CC3D00202A
:1049B0000149001070B50D001C000D4B1860002A55
:1049C0000BDA002C0EDA0A4B18682900FDF712F8F2
:1049D00008480121FFF78AFE70BD02211000FBF795
:1049E00081FDEEE702212000FBF77CFDEBE7C046EE
:1049F000F04400204012002010B5064B1B78064BF7
:104A00001B78E1210123002249020448FFF7D2FF6D
:104A100010BDC04600170610FC16061000400340EB
:104A2000104A53071BD0D11D0723994380235B02F3
:104A30005B1A9B180A000C48026000214160D318E1
:104A4000083B072083430948036059601960991A9D
:104A500051601360064B1960064B19607047802344
:104A60005B02E8E7F4440020EC450120643F0020AD
:104A7000784501206C45012010B5124B1A001B68C7
:104A80008342FBD351685418844208D041684418CB
:104A9000A34209D00360904200D0106010BD40686E
:104AA000091851601000F1E7074C2468A34206D0B2
:104AB0005B68C918416013681B680360EBE704601A
:104AC000E9E7C046EC450120643F002070B50500D1
:104AD00001F030FC384B1B68002B14D0002D16D091
:104AE0002B00093312D8083507231A002A402B421D
:104AF00005D001339B1A093AAA4211D3ED18002DB3
:104B000005DA00263EE0FFF78BFFE7E70025002DE2
:104B100044D02A4B1B68AB4242D3294A146803E0B5
:104B20000025F4E722001C006368AB4202D2236830
:104B3000002BF7D1204B1B68A34233D016680836F0
:104B40002368136063685B1B102B06D9601942074A
:104B50001ED143606560FFF78FFF626817490B68DD
:104B60009B1A0B60174909688B4201D215490B60EB
:104B700080231B061343636000232360124A1368DB
:104B80000133136001F0A8FC73070DD1300070BD34
:104B90000E4B0F4A0F48EE21FDF748F90026F1E7CA
:104BA0000026EFE70026EDE70B4B094A972109485D
:104BB0004900FDF73BF9C046643F00206C450120E9
:104BC000EC450120784501208445012004DF0410D4
:104BD00068E0041038DF041084DF041070B500288A
:104BE0001ED00500083D6B68002B1ADA0200083A57
:104BF0001268002A1CD1083804005B005B0843607F
:104C000001F098FB61680E4A13685B181360280076
:104C1000FFF732FF0B4A13680133136001F05CFCAD
:104C200070BD094B094A42210948FF31FDF7FEF8E2
:104C3000084B064AA12106484900FDF7F7F8C0468F
:104C40006C45012088450120C0DF04105CE00410A1
:104C500038DF041034E00410084B5B6A994209D82D
:104C6000064A926A824207D2994201D0012002E0AC
:104C7000002000E0002070470120FCE700400540D4
:104C8000704700000000000000000000000000006D
:104C90000B4A13681868203080F30988022080F3DB
:104CA0001488BFF36F8F3FBCAE4608BC04BC62B62D
:104CB0001847C046C046C046C046C046C046C0466B
:104CC000583F00200000000000000000000000002D
:104CD000EFF30980164B1A6820381060F0C0444684
:104CE0004D4656465F46F0C00D221207146E556EB3
:104CF000566F176F3038F0C008B572B601F0BEFCC1
:104D000062B60CBC116808681030F0C8A046A9460D
:104D1000B246BB4680F309880D2212073038F0C82E
:104D20001466556656671767F0C81847C046C046F0
:104D3000583F002010B5FDF729F9000010B5002BF1
:104D400002DB0260436010BD024B034A03483F216F
:104D5000FDF76CF830D3041078E104104CD3041044
:104D600010B582B00400FCF727FB02000B00684678
:104D7000FFF7E4FF009A019B22606360200002B00D
:104D800010BD000030B583B004000D006846FFF789
:104D9000E7FF009A019B20002900801A99410A4AE6
:104DA00001235B4280185941002907DC02D0002012
:104DB00003B030BDFA239B009842F8D3FA22920048
:104DC0000023FEF769FAF3E718FCFFFF10B5031F95
:104DD000802464041C60043B1960044B01000C39FE
:104DE0000B600300203B1A60403810BD354D0010A9
:104DF00010B50A4B1B68002B08D1094B80225205C5
:104E00001A60BFF34F8FBFF36F8F10BD054B064A7B
:104E100036210648FF31FDF709F8C046F041002071
:104E200004ED00E078E0041000E2041098E00410C3
:104E300072B6044A136801331360BFF34F8FBFF398
:104E40006F8F704700450120074B1B68002B09D06E
:104E5000064A1168BFF35F8F00221A6081F3108841
:104E6000014B1A6062B67047F0410020FC440120FB
:104E700010B50A4B1B68002B05D0013B074A136095
:104E8000002B07D010BD064B064AA7210648490053
:104E9000FCF7CCFFFFF7D8FFF4E7C0460045012040
:104EA000F0E00410ECE1041098E00410EFF310803F
:104EB00072B6704780F310887047000010B5FFF796
:104EC000F5FF040001F04AFA002803D0034B8022CA
:104ED00052051A602000FFF7EDFF10BD04ED00E061
:104EE00010B5094C00232360084A13600520FCF725
:104EF000C5FEFA218900FEF7A9F90138044B1860B4
:104F00000723236010BDC04610E000E018E000E079
:104F100014E000E010B5154B1968FF2212040A4393
:104F20001A601968FF2212060A431A60104902200B
:104F3000404202F04BF90F490120404202F046F98D
:104F40000D490520404202F041F9FFF7C9FF0B4B24
:104F500000221A60D0231B061A68094B1A70FFF74B
:104F600097FE01F08BFBFFF7E5FEC04620ED00E069
:104F7000D14C0010BD4E0010814C001000450120A6
:104F80005812002010B5094B1B78D0221206106869
:104F9000834200D010BDEFF30583002B02D05B00ED
:104FA000C018F7E701F0D2FDF4E7C0465812002020
:104FB00000B583B0EFF30583DBB2002B10D1214B9A
:104FC0001A78D0231B061B689A420FD00368BFF3E0
:104FD0005F8F00221A6081F3108820BF03B000BDEC
:104FE000194B1A4A1A481B49FCF720FF1A4B1B6839
:104FF000002B19D10368002B1CD0174A1360174AE5
:105000001160174A944663449B10012199400B029A
:105010001943090A134B186801235B4200930023CC
:10502000012200F019F9D9E70F4B084A08480F4947
:10503000FCF7FCFE0E4B054ABA2105488900FCF737
:10504000F5FEC0465812002004E10410C8E1041027
:1050500098E00410DB020000F0410020FC44012035
:1050600000FFFF2F6845012078E00410E3020000F4
:1050700064E1041030B583B00A0004681B4BE118EA
:10508000891001238B4019021943090A184B1D7816
:10509000D0231B061B689D4209D040BF0368BFF3A5
:1050A0005F8F0021196082F3108803B030BDBFF319
:1050B0005F8F0023236082F31088EFF30583DBB258
:1050C000002B04D10B4B186800F056F9EDE70023D4
:1050D0000193084B186801AA00F09EF9019B002B70
:1050E000E3D0054B802252051A60DEE700FFFF2F58
:1050F000581200206845012004ED00E0F0B583B0AF
:1051000007000E0015001C00EFF30583DBB2002B37
:1051100030D1314B1A78D0231B061B689A422FD10D
:105120002E4B1B68002B38D128002100FFF72AFEE8
:10513000031E3ED03A68002A35D0284F3A602849ED
:105140000E6028498C4662449210012191400A0267
:105150001143090A244A106800930023012200F039
:105160007BF83B68002B2BD0204B214A2148224959
:10517000FCF75CFE214B1E4A1E482149FCF756FEF7
:105180000368BFF35F8F00221A6081F31088280044
:105190002100FCF78BF8040018E0144B144A154862
:1051A0001849FCF743FE184B114A12481749FCF7FF
:1051B0003DFE3B68BFF35F8F00221A6086F31088C4
:1051C00028002100FFF748FD041E02D0200003B094
:1051D000F0BDFFF70DFEF9E758120020F041002066
:1051E000FC44012000FFFF2F6845012078E00410F7
:1051F00090E1041098E004103603000004E104106C
:105200001D0300002603000064E104102E030000CB
:1052100010B500F014F8014B186010BD684501206E
:10522000002A03D1014206D1100003E00840884261
:1052300003D0002070470120FCE70120FAE710B5F9
:105240001C20FFF743FC041E03D0002308C000F01D
:10525000EFF8200010BD0000F0B5C64600B506000E
:105260000D001700984600282FD080235B04994238
:1052700032D2002937D001F06FFC002802D1069B02
:10528000002B37D101F056F834684246290020003F
:10529000FFF7C6FF002834D0002F48D02300AB43CF
:1052A00033600023069301F017F9069B002B08D00A
:1052B00000283FD001F082FD040083013DD5240287
:1052C000240A200080BCB846F0BD254B254A3C216D
:1052D0002548FF31FCF7AAFD244B224A9E21224893
:1052E0004900FCF7A3FD224B1E4A3E211E48FF3118
:1052F000FCF79CFD1F4B1B4AA0211B484900FCF7F3
:1053000095FD069B002BCED0002F0DD100214346EA
:10531000002B02D08023DB0419432943301D069A59
:1053200001F03CFA0024BEE780214904EFE70023A6
:105330000693B8E7FFF75CFDBCE7FFF779FD34683B
:10534000424629002000FFF76BFF002804D0002F01
:1053500002D02300AB433360FFF78AFDAFE7C046BE
:105360000CE2041028E3041018E204105CE20410BC
:1053700084E204109CE20410F8B504000D0000283B
:105380000DD080235B0499420FD206000C3600F04A
:10539000D1FF206923682B432360002718E0174BB7
:1053A000174A18481849FCF741FD184B144A852143
:1053B00014488900FCF73AFD21681940994206D14A
:1053C00011E0236880218904194301F0D7FA2800ED
:1053D000B0420CD04568026813021B0A5101EBD49D
:1053E00021680B42F3D0D201EBD51F43E9E72368D4
:1053F000BB43236001F070F82068F8BD0CE2041094
:1054000014E3041018E2041013020000F0E2041088
:1054100010B5FFF7B1FF10BD10B51300034C0A0023
:105420000100200001F09AFE10BDC046115400108A
:10543000030008334360012252428260C36003616B
:1054400000230360704700230361704730B50D6887
:105450006B1C10D0030008331C005B681A68AA425A
:10546000FAD963684B6099608C6061600861036879
:105470000133036030BD0469F3E703694168826862
:105480008A60416851605A68824206D000220261F7
:105490001A68013A1A601868704782685A60F5E71E
:1054A0000300406A002803D01B6B1B682020C01A31
:1054B000704710B50400FFF7BBFCA26BE36B9A4288
:1054C00004D00024FFF7D4FC200010BD0124F9E72C
:1054D00010B50400FFF7ACFCA36B002B04D1012432
:1054E000FFF7C6FC200010BD0024F9E770B50400EA
:1054F0001500866B026C002A0CD10368002B03D0C8
:1055000000200136A66370BD806801F091FB002386
:10551000A360F6E7002D0DD14068FEF7F5FE636845
:10552000226C9B186360A26893421AD3236863605D
:105530002800E6E7C068FEF7E7FEE368226C514208
:105540009B1AE3602268934202D2A3685B18E3606F
:10555000022D01D00020D4E7002E04D0013E00200F
:10556000CFE72800CDE70020CBE710B50300080007
:105570001A6C002A0AD0DC68A418DC6099688C4296
:1055800001D31968D960D968FEF7BEFE10BD0000CE
:1055900070B582B00190846C002C0AD0A26BE36BD2
:1055A0009A420DD2A26B934210D80025280002B077
:1055B00070BD1A4B1A4AC2211A480901FCF736FC81
:1055C000194B174A17481949FCF730FC4523E65C8C
:1055D00076B2002201A92000FFF788FF0500731CA6
:1055E0000AD1636A002BE1D02000243001F046F993
:1055F0000028DBD00125D9E700F0AAFE8642D5D2EB
:105600007F2E04D0013676B24523E654CEE7084B10
:10561000034A04480749FCF709FCC0463CE3041070
:105620001CE6041050E304108CE30410210C00006D
:10563000D4E30410410C000070B50500FFF7F8FB3F
:105640004523EC5C64B20AE06B6A002B17D028009B
:10565000243001F013F900280ED1013C64B2002C73
:105660000DDDAB6C002BEFD02800FFF791FF002879
:10567000F3D001F065FAF0E701F062FAEDE74523B7
:10568000FF22EA54FFF7F4FBFFF7D2FB4423EC5C64
:1056900064B201E0013C64B2002C0BDD2B69002BED
:1056A00008D02800103001F0E9F80028F2D001F00D
:1056B00047FAEFE74423FF22EA54FFF7D9FB70BD16
:1056C000F8B504000D0000282BD0C36B002B54D07C
:1056D000026C0026190C100C002937D181B2002968
:1056E00026D1002E49D1FFF7A3FB2268E36B206C83
:1056F000010059435118A1600021A1636260013B80
:105700004343D218E260FF234422A3540132A3543E
:10571000002D29D12369002B1DD1FFF7A9FB012002
:10572000F8BD194B194A972119484900FCF77EFB2F
:10573000011C181C9BB292B25A4380B289B24143F9
:10574000120C8918090CCCD00126CAE780B20028B7
:10575000FAD1101CEEE72000103001F08FF800287D
:10576000DBD0FFF745FBD8E720001030FFF760FEE5
:1057700020002430FFF75CFECFE7064B034A64218C
:105780000348FF31FCF752FBF8E3041060E6041015
:1057900050E3041000E4041070B51D00049C0029BF
:1057A0000BD12460E063216401212000FFF788FF12
:1057B0005023E5540023A36470BD2260F2E700008B
:1057C000F0B583B004000F001600002831D000218E
:1057D000030C3A0C002B27D193B2002B16D10029D1
:1057E00027D1380060430300553322D85430FFF7E7
:1057F0006DF9051E07D002005432009033003900C5
:105800002000FFF7C9FF280003B0F0BD131C201CC7
:10581000A5B2BAB26A4380B29BB24343120C9B1842
:105820001B0CDCD00121DAE792B2002AFAD1381C35
:10583000EEE7034B034A04480449FCF7F7FAC04675
:1058400024E404104CE6041050E304101502000098
:10585000F0B585B004000F0001921E00002813D09F
:10586000002917D0022E02D1E36B012B1BD101F0CE
:1058700073F9051E1DD1019B002B5BD04D4B4E4A89
:105880004E484F49FCF7D2FA4E4B4B4A4B484E49D3
:10589000FCF7CCFA036C002BE4D04C4B464A47484B
:1058A0004B49FCF7C3FA4B4B434A44484A49FCF77F
:1058B000BDFA00253EE0A56B320039002000FFF75D
:1058C00015FEA36C002B10D0022E01D1002D04D1A7
:1058D0002000FFF75DFE002804D1FFF7C9FA012080
:1058E00005B0F0BDFFF784FAF7E7636A002B04D137
:1058F0000028F2D0FFF77CFAEFE72000243000F018
:10590000BDFF0028E9D0FFF773FAE6E7FFF7B0FA2A
:105910000020E5E702A801F0ABF8013517E000220E
:10592000E2541FE00022E25421E02000FFF784FE51
:1059300000F0D2FDFFF77CFAA26BE36B9A42BAD378
:10594000022EB8D0019B002BE0D0002DE2D0FFF753
:105950008FFA00F0EFFCFFF76BFA4423E25C52B2DF
:105960000132DCD04523E25C52B20132DAD0FFF7DB
:105970007FFA01A902A801F087F8002813D12000BE
:10598000FFF797FD0028D0D001992000103000F0DB
:10599000E7FE2000FFF750FE00F09EFD0028C9D171
:1059A000FFF726FAC6E72000FFF746FE00F094FD59
:1059B000002095E79CE2041038E6041050E3041040
:1059C00082030000F8E304107D03000030E40410BB
:1059D0007E03000088E404107F030000F0B5D64683
:1059E000474680B583B004000F0001921D000028D7
:1059F00019D000291DD0022D02D1E36B012B21D13A
:105A0000FFF754FA8046A26BE36B9A4220D3022D33
:105A10001ED000244046FFF74DFA200003B0C0BC62
:105A2000BA46B046F0BD324B324A33483349FCF7F0
:105A3000FDF9036C002BDED0314B2E4A2E48314944
:105A4000FCF7F4F9304B2B4A2B483049FCF7EEF9C0
:105A50004523E65C76B2A36B9A462A003900200003
:105A6000FFF744FD731C25D1A36C002B10D0022D31
:105A700002D15346002B2FD12000FFF789FD0028CB
:105A80002CD0019A002A2BD0012313600124C1E7F6
:105A9000636A002B01D10124BCE72000243000F010
:105AA000EDFE00281ED0019A002A1DD001231360AC
:105AB0000124AFE700F04CFC864217D27F2E05D0C0
:105AC000013676B24523E6540124A3E7104B094A78
:105AD00009481049FCF7AAF901249BE7012499E73A
